{
    "contractName": "Veto",
    "abi": [
        {
            "inputs": [
                {
                    "internalType": "uint256",
                    "name": "_index",
                    "type": "uint256"
                },
                {
                    "internalType": "uint256",
                    "name": "_votes",
                    "type": "uint256"
                }
            ],
            "name": "addContestant",
            "outputs": [],
            "stateMutability": "nonpayable",
            "type": "function"
        },
        {
            "inputs": [
                {
                    "internalType": "string",
                    "name": "_name",
                    "type": "string"
                },
                {
                    "internalType": "string",
                    "name": "_info",
                    "type": "string"
                },
                {
                    "internalType": "uint256",
                    "name": "_maxC",
                    "type": "uint256"
                },
                {
                    "internalType": "uint256",
                    "name": "_cost",
                    "type": "uint256"
                }
            ],
            "name": "addProject",
            "outputs": [],
            "stateMutability": "nonpayable",
            "type": "function"
        },
        {
            "inputs": [
                {
                    "internalType": "uint256",
                    "name": "_index",
                    "type": "uint256"
                }
            ],
            "name": "getContestants",
            "outputs": [
                {
                    "internalType": "uint256",
                    "name": "",
                    "type": "uint256"
                }
            ],
            "stateMutability": "view",
            "type": "function"
        },
        {
            "inputs": [
                {
                    "internalType": "uint256",
                    "name": "",
                    "type": "uint256"
                }
            ],
            "name": "projects",
            "outputs": [
                {
                    "internalType": "address",
                    "name": "creator",
                    "type": "address"
                },
                {
                    "internalType": "string",
                    "name": "name",
                    "type": "string"
                },
                {
                    "internalType": "string",
                    "name": "info",
                    "type": "string"
                },
                {
                    "internalType": "uint256",
                    "name": "maxC",
                    "type": "uint256"
                },
                {
                    "internalType": "uint256",
                    "name": "cost",
                    "type": "uint256"
                }
            ],
            "stateMutability": "view",
            "type": "function"
        }
    ],
    "bytecode": "60806040526000805534801561001457600080fd5b50610679806100246000396000f3fe608060405234801561001057600080fd5b506004361061004c5760003560e01c8063107046bd146100515780632160036a1461007e5780635f3f922414610093578063cee9dc4514610102575b600080fd5b61006461005f3660046103df565b610123565b604051610075959493929190610445565b60405180910390f35b61009161008c366004610533565b61026d565b005b6100916100a13660046105a7565b6000918252600160208181526040808520815180830190925233825281830194855260050180548085018255908652919094209351600290910290930180546001600160a01b0319166001600160a01b039094169390931783559051910155565b6101156101103660046103df565b61030c565b604051908152602001610075565b6001602081905260009182526040909120805491810180546001600160a01b0390931692610150906105c9565b80601f016020809104026020016040519081016040528092919081815260200182805461017c906105c9565b80156101c95780601f1061019e576101008083540402835291602001916101c9565b820191906000526020600020905b8154815290600101906020018083116101ac57829003601f168201915b5050505050908060020180546101de906105c9565b80601f016020809104026020016040519081016040528092919081815260200182805461020a906105c9565b80156102575780601f1061022c57610100808354040283529160200191610257565b820191906000526020600020905b81548152906001019060200180831161023a57829003601f168201915b5050505050908060030154908060040154905085565b60008054815260016020818152604080842080546001600160a01b031916331790558354845290922086516102aa93919092019190870190610346565b5060008054815260016020908152604090912084516102d192600290920191860190610346565b50600080548152600160205260408082206003018490558154825281206004018290558054908061030183610604565b919050555050505050565b60008181526001602052604081206005018054829061032d5761032d61062d565b9060005260206000209060020201600101549050919050565b828054610352906105c9565b90600052602060002090601f01602090048101928261037457600085556103ba565b82601f1061038d57805160ff19168380011785556103ba565b828001600101855582156103ba579182015b828111156103ba57825182559160200191906001019061039f565b506103c69291506103ca565b5090565b5b808211156103c657600081556001016103cb565b6000602082840312156103f157600080fd5b5035919050565b6000815180845260005b8181101561041e57602081850181015186830182015201610402565b81811115610430576000602083870101525b50601f01601f19169290920160200192915050565b6001600160a01b038616815260a060208201819052600090610469908301876103f8565b828103604084015261047b81876103f8565b60608401959095525050608001529392505050565b634e487b7160e01b600052604160045260246000fd5b600082601f8301126104b757600080fd5b813567ffffffffffffffff808211156104d2576104d2610490565b604051601f8301601f19908116603f011681019082821181831017156104fa576104fa610490565b8160405283815286602085880101111561051357600080fd5b836020870160208301376000602085830101528094505050505092915050565b6000806000806080858703121561054957600080fd5b843567ffffffffffffffff8082111561056157600080fd5b61056d888389016104a6565b9550602087013591508082111561058357600080fd5b50610590878288016104a6565b949794965050505060408301359260600135919050565b600080604083850312156105ba57600080fd5b50508035926020909101359150565b600181811c908216806105dd57607f821691505b602082108114156105fe57634e487b7160e01b600052602260045260246000fd5b50919050565b600060001982141561062657634e487b7160e01b600052601160045260246000fd5b5060010190565b634e487b7160e01b600052603260045260246000fdfea2646970667358221220e03e9b61fc82d1ee94f924a8d3fb1ceb7dbad0d2f08f82f2b34ff25702c84c5164736f6c634300080a0033",
    "sourcePath": "c:/Users/Noel/Desktop/html2/web3/voting-celo-blockchain-app/contract/veto.sol",
    "compiler": {
        "name": "solc",
        "version": "0.8.10+commit.fc410830"
    },
    "functionHashes": {
        "addContestant(uint256,uint256)": "5f3f9224",
        "addProject(string,string,uint256,uint256)": "2160036a",
        "getContestants(uint256)": "cee9dc45",
        "projects(uint256)": "107046bd"
    },
    "gasEstimates": {
        "creation": {
            "codeDepositCost": "331400",
            "executionCost": "5374",
            "totalCost": "336774"
        },
        "external": {
            "addContestant(uint256,uint256)": "71070",
            "addProject(string,string,uint256,uint256)": "infinite",
            "getContestants(uint256)": "4704",
            "projects(uint256)": "infinite"
        }
    }
}